:020000040000FA
:06000000F6EF08F012000B
:020006000000F8
:08000800F0EC04F06A6A686A7A
:100010002FEC05F06D8C6E6AD9EC04F06D9CDF6AF4
:1000200010EC05F010E2DF50040DF3CFE9FFF4CF40
:10003000EAFF000EE926040EEA22EE6AEE6AEE6A94
:10004000EE6ADF2AEDD7160E706E68A602D06896AB
:10005000FCD70001736B786B796B7A6B6D98080E27
:100060006B6F040E6C6F616B606BE552B6EF04F062
:10007000F0EC04F0000160510BE16D6A696A2FEC4D
:1000800005F06DB602D06D86FCD70001010E606FE1
:10009000600508E16DBA06D0686A696A6980698896
:1000A000020E606F6850040B05E06950040B02E01B
:1000B000689485D86DB248D06850010B12E0695041
:1000C000010B0FE0A1DF0001040E606F0401200EA0
:1000D000026F040E036F080E016F006B8C0E00138D
:1000E00068906850100B05E06950100B02E05FD873
:1000F00068986850400B09E06950400B06E036EC08
:1001000005F0730EA9EC04F0689C6850200B04E025
:100110006950200B01E03AD86850020B0AE06950A0
:10012000020B07E036EC05F0E668E6687EEC05F0C9
:100130006A6A040E0001E76E6019E8AE02D0E73487
:1001400002D0E750605D02E2A19A1DD069A61AD0E4
:10015000DF6A040EDF5C16E268A614D06CCF80F074
:100160006896780E0001801502E134D809D0000E9F
:10017000E66EE66A800EE66E000EE66E720EE9DB53
:10018000DF2AE7D7A19AE552B6EF04F070A00DD0B0
:10019000BDEC04F0EF50800807E1D6DBEF50840897
:1001A00003E1EBDB8C0EEF6E7090689A12006984AD
:1001B00068986D82F3EC04F0750EA9EF04F0F3EC8F
:1001C00004F0740EC6DB6D92699468A402D0689442
:1001D000FCD71200F0EC04F0FD0E000180153EE1AA
:1001E0007E0E8015E8407F0B040DF3CF63F0F4CF53
:1001F00064F0000E6327040E642363C065F064C0DE
:1002000066F06575BADBEF503C0BE842E8420D083A
:1002100023E1B3DB65EC05F0EECF10F0EFCF11F08A
:10022000280E101817E1040E111814E196EC05F0D1
:10023000DF6A10EC05F00EE2DF5018EC05F0DF503D
:10024000EA6A200FE96E040EEA22E552E750EF6EEB
:10025000DF2AEFD70AD807D01AD805D0FD0E8015AF
:10026000040801E122D8E55281D36EDBEF50800B08
:1002700002E06ADBEF6A00016F6B706B746B756B89
:10028000736B64D8B0DB030E64DBD8EF02F0020EB0
:100290000001705D02E165EF03F034D80001815187
:1002A00002E16AEF05F0816B12009ADB4DDBEF5043
:1002B000400B01E0010EDF6E00016B75080E605D02
:1002C00009E122C46EFF6E50000802E2100E01D058
:1002D000040E606F700513E19AEC05F0A3D9020ECD
:1002E00000016F5D03E130DB840E07D0DF5003E1D6
:1002F0002BDBC80E02D028DB880EEF6E01D002D8AF
:10030000E55234D32FDB0001706B1EDBEF6A040E65
:100310006B19106E6CC011F0DE6E6CC0DDFF1DDB62
:10032000EF6A78AF0CD07B517C1107E005D07CC020
:10033000FAFF00017B51F96EFADF0001789F020E8F
:10034000E15C02E2E16AE552E16E10D30401205162
:10035000600BE842E842E842E842E842000901E076
:10036000120021510C0A45E00B0A3FE00C0A31E073
:10037000010A22E00B0A1EE0020A1CE0030A18E050
:10038000080A10E0010A0CE00F0A08E0030A01E085
:1003900012000001738F080E606F12005BEF02F015
:1003A000C1EF03F00001610E716F000E726F0CD08F
:1003B0009CEF02F0FAEF01F024510001716F726BB3
:1003C000620E7127000E72237381010E746F738F9A
:1003D00012000001738F04012451EA6A620FE96E72
:1003E000000EEA2222C4EFFF1200FDDA020EA9EF8E
:1003F00004F0120073DB040EE1260401220510E173
:1004000020511F0B00090CE10001738F030E040142
:10041000215D04E10001010E7F6F02D000017F6BBE
:100420000401225141E120511F0B02083DE12451FA
:100430000F0B000939E00001738F040124BF05D0C0
:10044000A1DA670EE926000E04D09CDA6B0EE926CD
:10045000000EDADA030E215D03E17FDA840E23D089
:1004600024510F0B116A700F106E0F0E1122020E25
:1004700010C0DBFF030E11C0DBFF020EDBCFE9FF74
:10048000030EDBCFEAFFEE90ED5224AF06D065DA23
:10049000EF6ADF7462DA400E06D05FDA880EEF6E24
:1004A000DF745BDAC80EEF6E040EE15C02E2E16A13
:1004B000E552E16E5BD2800E0401205D3CE100015B
:1004C000C00E736F04012351030A1EE0010A09E004
:1004D000030A2FE10001160E716F0E0E726F120EDD
:1004E00022D0CBDAEF0EF6260E0EAADA020E0001AB
:1004F000F76A7125F66E7251F7220900F5CF74F094
:100500000A00F5CF75F01200030E225D0FE2B5DA96
:10051000F10EF6260E0E94DA71C0F6FF72C0F7FFE8
:100520000800F5500001746F756B12000001736BC9
:1005300012000001736B120015DA0401286B296B9D
:1005400020511F0B020A0EE0030A09E0010A1FE115
:100550000001738F7F051BE10401288318D000017F
:10056000738F15D00001738F040124BF05D00ADA00
:10057000670EE926000E04D005DA6B0EE926000EA0
:1005800043DAEBD9EF50040B02E0010E286F0001B3
:1005900073AF07D0280E716F040E726F7381020E55
:1005A000746F020EE15C02E2E16AE552E16EDED1B7
:1005B0006D98000173BF08D078AF02D06CDA2AD0F2
:1005C00089DAC2D9840E27D078BF2BD0040120AF9E
:1005D00024D0000174510401265D0001755104010D
:1005E000275904E226C474F027C475F01BD8000113
:1005F000010E706FA3DA800EEF6E816BBED9EE52E2
:10060000080EEF6E93DAB9D9840EEF6E010E816F8A
:1006100091DA9AD9C80EEF6E120000013CDAC80ECA
:10062000EF6E12009FD90001080E745D000E75591F
:100630000DE274C0DEFF75C0DDFF6F5102E1010EF7
:1006400003D06F0506E1020E6F6F03D0080EDE6E59
:10065000DD6A7AD9EF9278D9EF9076D9010EDB5026
:10066000EF1272D9EE52DFCFEFFF000EDB50745F56
:10067000010EDB50755B280E7D6F040E7E6F73B12B
:100680000FD002DA1BE071C0F6FF72C0F7FF712BCA
:10069000000E72230800F55095D9F3E2DB06F1D77E
:1006A000F3D90CE071C0E9FF72C0EAFF712B000EB4
:1006B0007223EF5087D9F4E2DB06F2D7020EE15C39
:1006C00002E2E16AE552E16E51D14CD956D9EE52BF
:1006D000EFCFDFFFDFCF10F010500001795D000E8B
:1006E0007A5903E279C0DFFF09D0DF50106E116A3A
:1006F000E850795D796F11507A597A6F010EDB6A93
:10070000DF50F36E010EDBCFF4FFF350F45C10E228
:10071000010EDB508DD976C0E9FF77C0EAFF762B5A
:10072000000E7723E552E750EF6E010EDB2AE8D783
:10073000000ED8807955000E7A550DE2F9D85FD9B0
:100740001CD9EF50400B03E1ECD9C80E02D0E9D917
:10075000880EEF6E0FD0F2D9840EEF6E7B517C11B4
:1007600007E005D07CC0FAFF00017B51F96EFADF8B
:100770000001789F020EE15C02E2E16AE552E16E5F
:10078000F5D00001738F15D9010EE66EE66AE66AB0
:10079000620EE66E000EAAD922C461F0000161511A
:1007A00003E1100E606F1200200E606F010EE66E06
:1007B000E66A610EE66E000EE66E010EA9EF04F029
:1007C000D1D8000EDE6E040EDD6EE4D8040DF350B9
:1007D000106E116A020E0F0B05E0D8901132103224
:1007E000E806FBE1D89010361136D8901036113655
:1007F000D9CFE9FFDACFEAFF1050EE261150ED22F3
:10080000ACD8EF9EFD0EDB5002E1CED801D097D8D8
:10081000EA22DECFEEFFDDCFEDFF9FD8EF9C9DD823
:10082000040EE926000EEA22EF8C020EE15C02E2E1
:10083000E16AE552E16E9AD095D8FE0EDB50116A5E
:10084000700F106E0F0EE6D888D8FD0EDBCFEFFFCD
:10085000DBA402D0E66AFCD8FD0EDBA203D0010EB9
:10086000E66EF6D8020EE15C02E2E16AE552E16E64
:100870007DD078D8FE0EDB5005E12CD965D8840EEA
:10088000EF6E05D087D813D985D8010F10D9020E85
:10089000E15C02E2E16AE552E16E68D063D8FD0EE8
:1008A000DB5002E04CD801D07FD8AED856D80DD955
:1008B000FB0EDBCFEEFFFC0EDBCFEDFF4ED8EE5292
:1008C000FA0EDBCFEFFF400E48D8E850EF16880E47
:1008D00044D8E850EF12FD0EDB5002E030D801D0D2
:1008E00063D8EA22EF74DECF10F0DDCF11F010C034
:1008F000F3FF11C0F4FF020EE15C02E2E16AE5528F
:10090000E16E34D0EBD86DA812D0EDD8400EEE16C3
:10091000EE6AEE6AEE6AE7D8EE7C11D8EA22EF744E
:10092000400E106EE0D81050EF16DDD8EF7C1ED0D0
:10093000F8D8EE52080EEF6EF4D865EF05F0E5D862
:100940006B0EE926000E12006BC0E9FF6CC0EAFFD7
:100950001200E66EE66A7EEF05F0DECFE9FFDDCF3E
:10096000EAFF1200BBD8020EE1261200E552E7CFE3
:10097000D9FF1200D1D891EF05F063C0E9FF64C040
:10098000EAFF120024510F0BE96EEA6AD890E936AB
:10099000EA361200FD0EDB50E824126EFE0EDB502C
:1009A000040DF35012241200B0D8670EE926000E91
:1009B0001200000EE66EE66AE66A710EE66E0F0E33
:1009C00076EF05F0E66E7DC0E9FF7EC0EAFF7D2B85
:1009D000000E7E23E552E750EF6EDF06010E120097
:1009E0007DD8E6521200000EE66EE66AE66EE66A12
:1009F0001200EA22EE50EFCFEAFFE96E1200280E55
:100A0000EE6E040EED6E1200EA22EECFDEFFEDCFA9
:100A1000DDFF1200112210C0DEFF11C0DDFF120049
:100A2000DF50106E116A080E105C000E1158120093
:100A3000EA6A280FE96E040EEA22EF50E66E120011
:100A4000F7220900F5CF71F00A00F5CF72F012001D
:100A5000FE0EDBCFE6FFB4DEE552E5521200160EC5
:100A60006F6E9F0E6B6E7B0E696E1200010EE66E4E
:100A7000E66A000EE66EE66A12002251F66EF76A2A
:100A8000D890F636F7361200D9CFE9FFDACFEAFF71
:100A9000EE50ED101200020E706F56DFEE52EF6A4C
:100AA00053DFC80EEF6E44DFAADF91EF05F0040DAF
:100AB000F3CF10F0F4CF11F0000E1026040EAADFD1
:100AC000840E4BDFE850EF121200020EE926000EF2
:100AD000EA22120033D88C0EEF6E1200D9CFE6FF57
:100AE000E1CFD9FF12002BDFF9EF04F0E66E8FECB7
:100AF00008F0106E050EE15E10501200B0EC06F02A
:100B0000106E060EE15E10501200FE0EEA6ADB3433
:100B1000FE0BEA36E96E1200200EEE6E040EED6E4C
:100B2000120065C0E9FF66C0EAFF120026DFCDDFD4
:100B30008CEF05F009DFC9DFFFEF04F0F9DEBAEF53
:020B400004F0BF
:0E0B4200FD0EE66E040EE66EED0EE66E32EC73
:100B500008F0E552E552E55292809282120052D995
:100B6000FE0EDBCFE6FFA9EC08F0E55212EC09F02F
:100B70000DEC09F00009FCE104EC09F048D1949473
:100B80009368F19E8A68DDDF04EC00F00001906B51
:100B9000916B38EC00F059D8FCD734D92CD9000E21
:100BA000105E020E115AFD0E10C0DBFFFE0E11C0CA
:100BB000DBFF100E106E116AFD0EDBCF08F0FE0E8B
:100BC000DBCF09F010C00DF011C00EF069EC08F099
:100BD000FD0E08C0DBFFFE0E09C0DBFFFD0EDBCF04
:100BE00014F0FE0EDBCF15F0153409E214507F0827
:100BF000000E155404E27F0E126E136A06D0FD0E2D
:100C0000DBCF12F0FE0EDBCF13F0D880135004E7D9
:100C1000810E125CFF0E135804E2810E106E1168F3
:100C200012D0FD0EDBCF16F0FE0EDBCF17F017341F
:100C300009E216507F08000E175404E27F0E106E72
:100C4000116A01D0D8D81050E2D0200E0001E76E12
:100C50006019E8AE02D0E73402D0E750605D4FE3A0
:100C60006D50020B01E0120000019051911102E160
:100C7000000E08D090C0E9FF91C0EAFFEF50800B52
:100C800001E0010E00093BE18B84870EE66E67DF11
:100C9000E552F3CF92F0F4CF93F08F0EE66E5FDF64
:100CA000E552F3CF94F0F4CF95F08B94811C030BB5
:100CB0000401336FF3CFE6FFF4CFE6FF6EDFE552BA
:100CC000E5520401346F92C0E6FF93C0E6FF65DF92
:100CD000E552E5520401356F030EE66E330EE66E03
:100CE000040EE66E010EE66EE66E4EEC04F0106E3B
:100CF000050EE15E1050F3CF90F0F4CF91F01200AA
:100D000081D8E6528150DF6E00019651DF5C07E02A
:100D1000780EE66ED6EC08F0E552DFCF96F0DF50A5
:100D2000E55275D012001200120012007CEF07F09D
:100D300012001A0EE66E010EE66E1CEC04F0E5528F
:100D4000E55212006D840001080E976F070E986F30
:100D50009707000E985B97519811FAE16D94120075
:100D6000D9CFE6FFE1CFD9FFFD0EDBCF08F0FE0EB5
:100D7000DBCF09F0720E081801E1095033E0E86892
:100D8000081802E1E86809182BE0740E081801E160
:100D9000095024E0750E081801E109501DE0730E9A
:100DA000081801E1095016E0030E081801E1095086
:100DB0000FE0020E081801E1095008E0010E0818C2
:100DC00001E1095001E010D0B4DF0FD0B1DF0DD048
:100DD000ADDF0BD0A9DF09D0A5DF07D0A4DF05D098
:100DE000A4DF03D0000001D000D0010E00D0E552F6
:100DF000E7CFD9FF1200FD0EDBCF10F0FE0EDBCFE8
:100E000011F01200D9CFE6FFE1CFD9FF1200E55271
:060E1000E7CFD9FF12003C
:0A0E16001201000200000008D804D9
:100E200055AB03000102000109022200010100C0CC
:100E3000320904000001030102000921110100012F
:100E4000223200070581030300010403090434036F
:100E50004D006900630072006F0063006800690064
:100E60007000200054006500630068006E006F0091
:100E70006C006F0067007900200049006E0063007D
:100E80002E002E034D006F007500730065002000DA
:100E900049006E00200061002000430069007200DC
:100EA00063006C0065002000440065006D006F0069
:100EB00005010902A1010901A10005091901290380
:100EC00015002501950375018102950175058101C4
:100ED0000501093009311581257F750895028106C4
:100EE000C0C000000000000000000000000000285A
:070EF0000E4A0E4E0E820EA9
:080EF800040120511F0B010849
:100F000001E01200245101E01200060E215D21E1F2
:100F10002351230A1BE0010A0CE0030A1AE1000135
:100F2000610517E100013A0E716F0E0E726F090E26
:100F300009D0000161050DE10001B00E716F0E0EC8
:100F4000726F3F0E746F756BC00E02D00001800E81
:100F5000736F04012051600BE842E842E842E84226
:100F6000E842010801E0120021510B0A26E0080ABC
:100F700019E0090A11E0080A05E00B0A23E0080A53
:100F800021E012000001990E716F000E726F010EC8
:100F9000746F756BC10E0FD00001800E736F23C488
:100FA00099F0120000019A0E716F000E726F010E1F
:100FB000746F756B810E736F12000001800E736F7A
:060FC00022C49AF01200A9
:0A0FC600060EF66E000EF76E000E28
:100FD000F86E00010900F5508B6F0900F5508C6F19
:100FE00003E18B6701D03DD00900F550866F090001
:100FF000F550876F0900F550886F09000900F5501A
:10100000E96E0900F550EA6E090009000900F55083
:10101000896F0900F5508A6F09000900F6CF8DF03D
:10102000F7CF8EF0F8CF8FF086C0F6FF87C0F7FFBE
:1010300088C0F8FF0001895302E18A5307E00900E4
:10104000F550EE6E8907F8E28A07F9D78DC0F6FFF2
:101050008EC0F7FF8FC0F8FF00018B07000E8C5B7E
:04106000BFD71200E4
:0C106400D9CFE6FFDACFE6FFE1CFD9FFDD
:10107000E2CFDAFFC26AC06AFC0EDB407F0B3C0B9A
:10108000C26EFB0EDBCFE6FFFC0EDB38F00B300B45
:10109000E552E710C16EFD0EDB50040DF350380B26
:1010A000116EFD0EDB380F0B070B106EFD0EDB50C3
:1010B000800B10101110C06EFC0EDBAE03D09E9C96
:1010C0009D8CF28CC280E552E5CFDAFFE7CFD9FFE5
:0210D00012000C
:0E10D200006A0EAE72EF08F00D6C0E1EE86A9A
:1010E0000E22001E09AE7AEF08F0086C091EE86AAD
:1010F0000922001EC0EC08F009BE8AEF08F000AE1D
:10110000000C086C091EE86A0922046C051EE86AD6
:0E1110000522000C00BE81EF08F00188FF0CE4
:02111E00FE0EC3
:10112000E3CFE9FFFF0EE3CFEAFFE9CFF3FFEACF1A
:10113000F4FFFB0EE35003E1FC0EE35009E0FB0E6D
:10114000E30602E2FC0EE306FD0EE350EE6EF1D77D
:0211500012008B
:0E115200D9CFE6FFDACFE6FFE1CFD9FFE2CF3B
:10116000DAFFC30EC214106EFD0EDB407F0B3C0B8A
:101170001010C26EE552E5CFDAFFE7CFD9FF1200BB
:10118000056A046A100EE76ED890083609360436F0
:1011900005360D50045C0E50055805E30D50045EF5
:0C11A0000E50055A082AE72EF0D7120066
:0411AC00FF0EE350FF
:1011B000186E480E01D04C0EE76EE72EFED7E76A98
:0C11C000E72EFED7182EF7D70000120013
:0411CC00000EF36EB0
:1011D00000EE00F0040E01D81200EA6002D0EE6AC0
:0C11E000FCD7F350E9601200EE6AFCD767
:0411EC0013EE00F00E
:1011F00023EE00F0F86A019CE3EC07F014EC09F030
:08120000BFEC05F0FBD7120062
:08120800C450136E126AC350BA
:0A1210001210F36E13C0F4FF120079
:06121A00C250020B01E0CE
:04122000010E1200A9
:04122400C282120070
:021228001200B2
:020000040030CA
:0100000024DB
:010001000EF0
:010002003FBE
:010003001EDE
:0100050001F9
:010006008178
:010008000FE8
:01000900C036
:01000A000FE6
:01000B00E014
:01000C000FE4
:01000D0040B2
:00000001FF
