:020000040000FA
:06000000AEEF0BF0120050
:020006000000F8
:08000800D9CFE6FFE1CFD9FFDB
:10001000E6526A6A686A9F0E6B6EFB0E696E6D8CA3
:100020006D9C6E6A000EE66EE66AE66A710EE66E1A
:100030000F0EE66E57EC0BF0106E050EE15E1050E1
:10004000DF6ADF50106E116A080E105C000E115846
:1000500010E2DF50040DF3CFE9FFF4CFEAFF000E0A
:10006000E926040EEA22EE6AEE6AEE6AEE6ADF2AFA
:10007000E8D7160E706E68A60CD0030EE66E680EFA
:10008000E66E0F0EE66E33EC08F0E552E552E552EF
:10009000F2D70001736B786B796B7A6B6D98080EF1
:1000A0006B6F040E6C6F616B606BE552E552E7CFCE
:1000B000D9FF1200D9CFE6FFE1CFD9FFE652A19ACE
:1000C0000001605111E105D06D6A696A0001606B41
:1000D000C9D06D6A696A6DB602D06D86FCD7000121
:1000E000010E606F160E6F6E600508E16DBA06D0E6
:1000F000686A696A69806988020E606F6850040BDB
:100100000FE06950040B0CE0020EE66E680EE66E1E
:100110000F0EE66E33EC08F0E552E552E552E6D8F4
:100120006DB2A0D06850010B1BE06950010B18E0C4
:100130006BDF0001040E606F0401200E026F040EDD
:10014000036F080E016F006B8C0E0013E66A680ED9
:10015000E66E0F0EE66E33EC08F0E552E552E5521E
:100160006850100B0FE06950100B0CE0A3D8040E80
:10017000E66E680EE66E0F0EE66E33EC08F0E552A2
:10018000E552E5526850400B1DE06950400B1AE003
:10019000010EE66EE66A000EE66EE66A020EE66E96
:1001A000E66A79EC09F0106E060EE15E1050060E5C
:1001B000E66E680EE66E0F0EE66E33EC08F0E55262
:1001C000E552E5526850200B04E06950200B01E035
:1001D0004ED86850020B12E06950020B0FE0010E7E
:1001E000E66EE66A000EE66EE66AE668E66879ECB8
:1001F00009F0106E060EE15E10506A6A040E0001EE
:10020000605D01E22FD069A62DD0DF6A040EDF5CAD
:1002100029E268A624D06CCF80F0030EE66E680E4B
:10022000E66E0F0EE66E33EC08F0E552E552E5524D
:10023000780E0001801502E178D810D0000EE66E2D
:10024000E66A800EE66E000EE66E010EE66EE66A67
:1002500079EC09F0106E060EE15E105001D002D06C
:10026000DF2AD4D7E552E552E7CFD9FF120070A0BC
:1002700015D063C0E9FF64C0EAFFEF5080080DE1CC
:100280006BC0E9FF6CC0EAFFEF50840806E163C071
:10029000E9FF64C0EAFF8C0EEF6E7090050EE66E0B
:1002A000680EE66E0F0EE66E33EC08F0E552E5528E
:1002B000E55212006984040EE66E680EE66E0F0EBB
:1002C000E66E33EC08F0E552E552E5526D82000E21
:1002D000E66EE66AE66EE66A040EE66EE66A79ECBB
:1002E00009F0106E060EE15E105012006D92000EC5
:1002F000E66EE66AE66EE66A030EE66EE66A79EC9C
:1003000009F0106E060EE15E1050699468A40CD0DE
:10031000020EE66E680EE66E0F0EE66E33EC08F027
:10032000E552E552E552F2D71200FD0E00018015AC
:1003300020E17E0E8015E8407F0B040DF3CF63F0C3
:10034000F4CF64F0000E6327040E642363C065F0ED
:1003500064C066F0657563C0E9FF64C0EAFFEF50F2
:100360003C0BE842E8420D0802E109D801D02AD846
:1003700005D0FD0E8015040801E12DD812006BC0D8
:10038000E9FF6CC0EAFFEF50800B05E06BC0E9FFAE
:100390006CC0EAFFEF6A00016F6B706B746B756B7A
:1003A000736B04D9000EE66EE66AE66EE66A170E17
:1003B000E66EE66A79EC09F0106E060EE15E10500A
:1003C00083EF04F0020E0001705D03E1E0EC05F044
:1003D00001D04ED81200D9CFE6FFE1CFD9FFE652C7
:1003E0006BC0E9FF6CC0EAFFEF50400B01E0010E6B
:1003F000DF6E00016B75080E605D0AE122C46EFFBE
:100400006E50000803E2100E606F02D0040E606FA1
:10041000700528E16BC0E9FF6CC0EAFF020EE92617
:10042000000EEA22280EEE6E040EED6E3EDB020E8A
:1004300000016F5D07E16BC0E9FF6CC0EAFF840E4D
:10044000EF6E0FD0DF5007E16BC0E9FF6CC0EAFF31
:10045000C80EEF6E06D06BC0E9FF6CC0EAFF880ED5
:10046000EF6E01D005D8E552E552E7CFD9FF120073
:10047000D9CFE6FFE1CFD9FF030EE126020E00013E
:10048000705D4AE16D50100B47E063C0E9FF64C046
:10049000EAFFEE52EF50106E116A080E101801E1DB
:1004A00011503AE163C0E9FF64C0EAFFEF503C0B32
:1004B000E842E8420D0830E165C0E9FF66C0EAFFA6
:1004C000EF50800B29E165C0E9FF66C0EAFF020E2C
:1004D000E926000EEA22200EEE6E040EED6EDF6AB3
:1004E000DF50106E116A080E105C000E115813E2F6
:1004F000DF50EA6A280FE96E040EEA22EF50E66E3A
:10050000DF50EA6A200FE96E040EEA22E552E75056
:10051000EF6EDF2AE5D731D0706B65C0E9FF66C0AA
:10052000EAFFEE52080EEF6E65C0E9FF66C0EAFF13
:10053000020EE926000EEA22200EEE6E040EED6E8B
:1005400065C0E9FF66C0EAFF8C0EEF6E6BC0E9FF85
:100550006CC0EAFFEF6A040E6B19106E6CC011F0EC
:10056000010E10C0DBFF020E11C0DBFF010EDBCF5E
:10057000E9FF020EDBCFEAFFEF6A000178AF0CD093
:100580007B517C1107E005D07CC0FAFF00017B5154
:10059000F96EFADF0001789F030EE15C02E2E16A86
:1005A000E552E16EE552E7CFD9FF12000401205178
:1005B000600BE842E842E842E842E842000901E014
:1005C00058D021510C0A54E00B0A43E00C0A35E0E4
:1005D000010A26E00B0A22E0020A20E0030A1CE0DE
:1005E000080A10E0010A0CE00F0A08E0030A01E023
:1005F0003FD00001738F080E606F3BD0C8D839D050
:1006000070DB37D00001610E716F000E726F738165
:10061000010E746F738F2DD014D92BD02BD829D005
:1006200024510001716F726B620E7127000E7223EC
:100630007381010E746F738F1CD00001738F0401DE
:100640002451EA6A620FE96E000EEA2222C4EFFF2B
:1006500010D0000EE66EE66AE66EE66A160EE66EEC
:10066000E66A79EC09F0106E060EE15E105001D0DA
:1006700000D01200D9CFE6FFE1CFD9FF040EE1266A
:100680000401220510E120511F0B00090CE10001BB
:10069000738F030E0401215D04E10001010E7F6FE1
:1006A00002D000017F6B0401225167E120511F0B32
:1006B000020863E124510F0B00095FE00001738F12
:1006C000040124BF10D024510F0BE96EEA6AD890C0
:1006D000E936EA36670EE926000EEA22EECFDEFFA3
:1006E000EDCFDDFF0FD024510F0BE96EEA6AD890F1
:1006F000E936EA366B0EE926000EEA22EECFDEFF7F
:10070000EDCFDDFF030E215D07E1DECFE9FFDDCF99
:10071000EAFF840EEF6E31D024510F0B116A700F77
:10072000106E0F0E1122020E10C0DBFF030E11C05F
:10073000DBFF020EDBCFE9FF030EDBCFEAFFEE901B
:10074000ED5224AF0DD0DECFE9FFDDCFEAFFEF6A37
:10075000DF74DECFE9FFDDCFEAFF400EEF6E0DD094
:10076000DECFE9FFDDCFEAFF880EEF6EDF74DECF6C
:10077000E9FFDDCFEAFFC80EEF6E040EE15C02E296
:10078000E16AE552E16EE552E7CFD9FF1200800E33
:100790000401205D55E10001C00E736F0401235177
:1007A000030A2EE0010A0EE0030A03E00001736B66
:1007B00047D00001740E716F140E726F120E746FB9
:1007C000756B3ED02251F66EF76AD890F636F73642
:1007D0004D0EF626150EF7220900F5CF71F00A002E
:1007E000F5CF72F0020E0001F76A7125F66E7251B4
:1007F000F7220900F5CF74F00A00F5CF75F020D08C
:10080000030E225D1AE22251F66EF76AD890F63690
:10081000F7364F0EF626150EF7220900F5CF71F0C8
:100820000A00F5CF72F071C0F6FF72C0F7FF080042
:10083000F5500001746F756B02D00001736B00D02E
:100840001200D9CFE6FFE1CFD9FF020EE126040165
:10085000286B296B20511F0B020A13E0030A0EE0DC
:10086000010A01E03CD00001738F02D0040128810D
:1008700000017F0502E10401288331D00001738F5C
:100880002ED00001738F040124BF10D024510F0B10
:10089000E96EEA6AD890E936EA36670EE926000E74
:1008A000EA22EECFDEFFEDCFDDFF0FD024510F0B9C
:1008B000E96EEA6AD890E936EA366B0EE926000E50
:1008C000EA22EECFDEFFEDCFDDFFDECFE9FFDDCFA9
:1008D000EAFFEF50040B02E0010E286F00D0000188
:1008E00073AF07D0280E716F040E726F7381020E02
:1008F000746F020EE15C02E2E16AE552E16EE552DC
:10090000E7CFD9FF12006D98000173BF4AD078AFCE
:1009100028D0020E706F6BC0E9FF6CC0EAFFEE5288
:10092000EF6A6BC0E9FF6CC0EAFFC80EEF6E65C0EE
:10093000E9FF66C0EAFFEE52080EEF6E65C0E9FF00
:1009400066C0EAFF020EE926000EEA22280EEE6ECD
:10095000040EED6E65C0E9FF66C0EAFFC80EEF6EDB
:100960001FD065C0E9FF66C0EAFFEE52080EEF6EC9
:1009700065C0E9FF66C0EAFF020EE926000EEA2222
:10098000200EEE6E040EED6E65C0E9FF66C0EAFF54
:100990008C0EEF6E6BC0E9FF6CC0EAFF840EEF6E49
:1009A00083D078BF81D0040120AF56D000017451AC
:1009B0000401265D000175510401275904E226C493
:1009C00074F027C475F071D80001010E706F65C016
:1009D000E9FF66C0EAFFEE52080EEF6E65C0E9FF60
:1009E00066C0EAFF020EE926000EEA22200EEE6E35
:1009F000040EED6E65C0E9FF66C0EAFF800EEF6E83
:100A000063C0E9FF64C0EAFFEE52080EEF6E63C0F8
:100A1000E9FF64C0EAFF020EE926000EEA22200E7A
:100A2000EE6E040EED6E63C0E9FF64C0EAFF800E57
:100A3000EF6E6BC0E9FF6CC0EAFF020EE926000E04
:100A4000EA22280EEE6E040EED6E6BC0E9FF6CC05C
:100A5000EAFFC80EEF6E28D00001020E706F6BC067
:100A6000E9FF6CC0EAFFEE52EF6A6BC0E9FF6CC0B1
:100A7000EAFFC80EEF6E65C0E9FF66C0EAFFEE52FE
:100A8000080EEF6E65C0E9FF66C0EAFF020EE926B8
:100A9000000EEA22280EEE6E040EED6E65C0E9FF30
:100AA00066C0EAFFC80EEF6E1200D9CFE6FFE1CFB5
:100AB000D9FF020EE1260001080E745D000E755983
:100AC0000EE274C0DEFF75C0DDFF6F5103E1010E61
:100AD0006F6F04D06F0502E1020E6F6F03D0080E36
:100AE000DE6EDD6A6BC0E9FF6CC0EAFFEF926BC09F
:100AF000E9FF6CC0EAFFEF906BC0E9FF6CC0EAFF52
:100B0000010EDB50EF126BC0E9FF6CC0EAFFEE5242
:100B1000DFCFEFFF000EDB50745F010EDB50755B23
:100B2000280E7D6F040E7E6F73B121D0D9CFE9FFFF
:100B3000DACFEAFFEE50ED1019E071C0F6FF72C097
:100B4000F7FF712B000E72230800F550E66E7DC092
:100B5000E9FF7EC0EAFF7D2B000E7E23E552E750C1
:100B6000EF6EDF06010E01E2DB06E0D71FD0D9CF22
:100B7000E9FFDACFEAFFEE50ED1018E071C0E9FFAF
:100B800072C0EAFF712B000E7223EF50E66E7DC03B
:100B9000E9FF7EC0EAFF7D2B000E7E23E552E75081
:100BA000EF6EDF06010E01E2DB06E1D7020EE15C2B
:100BB00002E2E16AE552E16EE552E7CFD9FF1200A9
:100BC000D9CFE6FFE1CFD9FF020EE12663C0E9FFEE
:100BD00064C0EAFFEE52EFCFDFFFDFCF10F010501E
:100BE0000001795D000E7A5903E279C0DFFF09D078
:100BF000DF50106E116A1050795D796F11507A597B
:100C00007A6F010EDB6ADF50F36E010EDBCFF4FF6B
:100C1000F350F45C16E2010EDB50EA6A280FE96E2D
:100C2000040EEA22EF50E66E76C0E9FF77C0EAFFD5
:100C3000762B000E7723E552E750EF6E010EDB2A8C
:100C4000E2D7000ED8807955000E7A5528E265C0AB
:100C5000E9FF66C0EAFFEE52080EEF6E65C0E9FFDD
:100C600066C0EAFF020EE926000EEA22280EEE6EAA
:100C7000040EED6E63C0E9FF64C0EAFFEF50400B65
:100C800007E165C0E9FF66C0EAFFC80EEF6E06D057
:100C900065C0E9FF66C0EAFF880EEF6E18D065C038
:100CA000E9FF66C0EAFF020EE926000EEA22200EE6
:100CB000EE6E040EED6E7B517C1107E005D07CC01A
:100CC000FAFF00017B51F96EFADF0001789F020EF6
:100CD000E15C02E2E16AE552E16EE552E7CFD9FF5D
:100CE00012000001738F000EE66EE66AE66A710E6E
:100CF000E66E0F0EE66E57EC0BF0106E050EE15E21
:100D00001050010EE66EE66AE66A620EE66E000EAE
:100D1000E66E57EC0BF0106E050EE15E105022C42B
:100D200061F00401225104E10001100E606F11D046
:100D30000001200E606F000EE66EE66AE66EE66A5F
:100D4000150EE66EE66A79EC09F0106E060EE15EAD
:100D500010501200D9CFE6FFE1CFD9FF020EE126F5
:100D6000000EDE6E040EDD6EFD0EDB50E824126E0A
:100D7000FE0EDB50040DF3501224040DF350106EE0
:100D8000116A020E0F0B05E0D89011321032E806FE
:100D9000FBE1D89010361136D89010361136D9CFE5
:100DA000E9FFDACFEAFF1050EE261150ED22DECF38
:100DB000E9FFDDCFEAFFEF9EFD0EDB500FE1FE0EF7
:100DC000EA6ADB34FE0BEA36E96E670EE926000EAE
:100DD000EA22DECFEEFFDDCFEDFF0ED0FE0EEA6A97
:100DE000DB34FE0BEA36E96E6B0EE926000EEA22D2
:100DF000DECFEEFFDDCFEDFFDECFE9FFDDCFEAFF97
:100E0000EF9CDECFE9FFDDCFEAFF040EE926000EFE
:100E1000EA22EF8C020EE15C02E2E16AE552E16E49
:100E2000E552E7CFD9FF1200D9CFE6FFE1CFD9FFD6
:100E3000020EE126FE0EDB50116A700F106E0F0ECF
:100E4000112210C0DEFF11C0DDFFDECFE9FFDDCFD4
:100E5000EAFFFD0EDBCFEFFFDBA407D0E66AFE0E54
:100E6000DBCFE6FF77DFE552E552FD0EDBA208D0CF
:100E7000010EE66EFE0EDBCFE6FF6CDFE552E552BB
:100E8000020EE15C02E2E16AE552E16EE552E7CF73
:100E9000D9FF1200D9CFE6FFE1CFD9FF020EE1263C
:100EA000FE0EDB5020E165C0E9FF66C0EAFFEE52AE
:100EB000080EEF6E65C0E9FF66C0EAFF020EE92684
:100EC000000EEA22200EEE6E040EED6E65C0E9FF04
:100ED00066C0EAFF8C0EEF6E6BC0E9FF6CC0EAFFE4
:100EE000840EEF6E3DD0FD0EDB50E824126EFE0E38
:100EF000DB50040DF3501224040DF3CF10F0F4CFA7
:100F000011F0000E1026040E112210C0DEFF11C0D9
:100F1000DDFF840E106EDECFE9FFDDCFEAFF10505B
:100F2000EF12FD0EDB50E824126EFE0EDB50040DB6
:100F3000F3501224010F040DF3CF10F0F4CF11F091
:100F4000000E1026040E112210C0DEFF11C0DDFFBE
:100F5000840E106EDECFE9FFDDCFEAFF1050EF12F6
:100F6000020EE15C02E2E16AE552E16EE552E7CF92
:100F7000D9FF1200D9CFE6FFE1CFD9FF020EE1265B
:100F8000FD0EDB500FE0FE0EEA6ADB34FE0BEA36A4
:100F9000E96E6B0EE926000EEA22EECFDEFFEDCF02
:100FA000DDFF0ED0FE0EEA6ADB34FE0BEA36E96E98
:100FB000670EE926000EEA22EECFDEFFEDCFDDFF61
:100FC000DECFE9FFDDCFEAFF020EE926000EEA22BE
:100FD000FB0EDBCFEEFFFC0EDBCFEDFFDECFE9FF3C
:100FE000DDCFEAFFEE52FA0EDBCFEFFF400E106EC0
:100FF000DECFE9FFDDCFEAFF1050EF16880E106E4E
:10100000DECFE9FFDDCFEAFF1050EF12FD0EDB501F
:101010000CE0FE0EEA6ADB34FE0BEA36E96E6B0E7C
:10102000E926000EEA22EF740BD0FE0EEA6ADB34EA
:10103000FE0BEA36E96E670EE926000EEA22EF742F
:10104000DECF10F0DDCF11F010C0F3FF11C0F4FFC0
:10105000020EE15C03E200D0E16AE552E16EE55286
:10106000E7CFD9FF1200D9CFE6FFE1CFD9FF010EBC
:10107000F36EFC0EDB5004E0D890F336E806FCE19A
:10108000F350E81C106EFD0EDBCFE9FFFE0EDBCF48
:0E109000EAFF1050EF16E552E7CFD9FF12002D
:02109E000D0E35
:1010A000E66E040EE66EED0EE66EFAEC0AF0E55220
:1010B000E552E552928092821200D9CFE6FFE1CF4D
:1010C000D9FFFE0EDBCFE6FF71EC0BF0E552D1EC61
:1010D0000BF0CCEC0BF0000901E0FBD7BCEC0BF003
:1010E00000D0E552E7CFD9FF120094949368F19EA7
:1010F0008A68D5DF04EC00F000018F6B906B5AEC2E
:1011000000F06BD8FCD71200D9CFE6FFE1CFD9FFB2
:10111000FD0EDBCF10F0FE0EDBCF11F0000E105EE7
:10112000020E115AFD0E10C0DBFFFE0E11C0DBFFD8
:10113000100E106E116AFD0EDBCF08F0FE0EDBCF35
:1011400009F010C00DF011C00EF031EC0BF0FD0EE7
:1011500008C0DBFFFE0E09C0DBFFFD0EDBCF14F085
:10116000FE0EDBCF15F0153404E214507F08000E9C
:10117000155404E27F0E126E136A06D0FD0EDBCF0B
:1011800012F0FE0EDBCF13F0D880135004E7810E6F
:10119000125CFF0E135804E2810E106E116817D016
:1011A000FD0EDBCF16F0FE0EDBCF17F0173404E296
:1011B00016507F08000E175404E27F0E106E116A5D
:1011C00006D0FD0EDBCF10F0FE0EDBCF11F010507D
:1011D00000D0E552E7CFD9FF1200200E0001605D7C
:1011E00003E36D50020B01E04CD000018F519011D0
:1011F00002E1000E08D08FC0E9FF90C0EAFFEF5077
:10120000800B01E0010E00093BE18B84870EE66E46
:1012100054DFE552F3CF91F0F4CF92F08F0EE66EEB
:101220004CDFE552F3CF93F0F4CF94F08B94811C14
:10123000030B0401336F93C0E6FF94C0E6FF64DF45
:10124000E552E5520401346F91C0E6FF92C0E6FF1B
:101250005BDFE552E5520401356F030EE66E330E97
:10126000E66E040EE66E010EE66EE66EBAEC07F070
:10127000106E050EE15E1050F3CF8FF0F4CF90F0BA
:1012800000D01200D9CFE6FFE1CFD9FFE65281505E
:10129000DF6E00019551DF5C07E0780EE66E9EEC94
:1012A0000BF0E552DFCF95F0DF5000D0E552E5526C
:1012B000E7CFD9FF12001200120012001200C4EF93
:1012C00009F012001A0EE66E010EE66E14EC07F03D
:1012D000E552E55212006D840001080E966F070E6C
:1012E000976F9607000E975B96519711FAE16D94F0
:1012F0001200D9CFE6FFE1CFD9FFFD0EDBCF08F01A
:10130000FE0EDBCF09F0010E081801E1095033E0B1
:10131000E868081802E1E86809182BE0030E0818CD
:1013200001E1095024E0040E081801E109501DE014
:10133000020E081801E1095016E0170E081801E125
:1013400009500FE0160E081801E1095008E0150ECB
:10135000081801E1095001E010D0B4DF0FD0B1DF6F
:101360000DD0ADDF0BD0A9DF09D0A5DF07D0A4DFFA
:1013700005D0A4DF03D0000001D000D0010E00D0C2
:08138000E552E7CFD9FF12008E
:08138800040120511F0B0108B4
:1013900001E06DD0245101E06AD0060E215D28E104
:1013A0002351230A21E0010A11E0030A01E020D0C1
:1013B000000161050AE10001980E716F140E726F51
:1013C000090E746F756BC00E736F12D0000161054A
:1013D0000AE100010E0E716F150E726F3F0E746FF1
:1013E000756BC00E736F04D00001800E736F00D058
:1013F00004012051600BE842E842E842E842E8423A
:10140000010801E034D021510B0A2BE0080A1EE04C
:10141000090A16E0080A09E00B0A05E0080A01E0DB
:1014200026D026D824D025D822D00001980E716F5E
:10143000000E726F010E746F756BC10E736F17D053
:101440000001800E736F23C498F011D00001990E33
:10145000716F000E726F010E746F756B810E736F7A
:1014600006D00001800E736F22C499F000D01200E4
:041470001200120054
:0C1474001201000200000008D80455AB73
:1014800003000102000109022200010100C032092B
:1014900004000001030102000921110100012232B0
:1014A00000070581030300010403090434034D0010
:1014B0006900630072006F006300680069007000DB
:1014C000200054006500630068006E006F006C002F
:1014D0006F0067007900200049006E0063002E0055
:1014E0002E034D006F007500730065002000490059
:1014F0006E0020006100200043006900720063005C
:101500006C0065002000440065006D006F0005015F
:101510000902A1010901A10005091901290315000A
:10152000250195037501810295017505810105016C
:10153000093009311581257F750895028106C0C0E3
:10154000000000000000000000000000008614A859
:0515500014AC14E014CE
:0A155600060EF66E000EF76E000E92
:10156000F86E00010900F5508A6F0900F5508B6F85
:1015700003E18A6701D03DD00900F550856F09006D
:10158000F550866F0900F550876F09000900F55086
:10159000E96E0900F550EA6E090009000900F550EE
:1015A000886F0900F550896F09000900F6CF8CF0AB
:1015B000F7CF8DF0F8CF8EF085C0F6FF86C0F7FF2D
:1015C00087C0F8FF0001885302E1895307E0090052
:1015D000F550EE6E8807F8E28907F9D78CC0F6FF60
:1015E0008DC0F7FF8EC0F8FF00018A07000E8B5BED
:0415F000BFD712004F
:0C15F400D9CFE6FFDACFE6FFE1CFD9FF48
:10160000E2CFDAFFC26AC06AFC0EDB407F0B3C0B04
:10161000C26EFB0EDBCFE6FFFC0EDB38F00B300BAF
:10162000E552E710C16EFD0EDB50040DF350380B90
:10163000116EFD0EDB380F0B070B106EFD0EDB502D
:10164000800B10101110C06EFC0EDBAE03D09E9C00
:101650009D8CF28CC280E552E5CFDAFFE7CFD9FF4F
:02166000120076
:0E166200006A0EAE3AEF0BF00D6C0E1EE86A39
:101670000E22001E09AE42EF0BF0086C091EE86A4C
:101680000922001E88EC0BF009BE52EF0BF000AEF1
:10169000000C086C091EE86A0922046C051EE86A41
:0E16A0000522000C00BE49EF0BF00188FF0C84
:0216AE00FE0E2E
:1016B000E3CFE9FFFF0EE3CFEAFFE9CFF3FFEACF85
:1016C000F4FFFB0EE35003E1FC0EE35009E0FB0ED8
:1016D000E30602E2FC0EE306FD0EE350EE6EF1D7E8
:0216E0001200F6
:0E16E200D9CFE6FFDACFE6FFE1CFD9FFE2CFA6
:1016F000DAFFC30EC214106EFD0EDB407F0B3C0BF5
:101700001010C26EE552E5CFDAFFE7CFD9FF120025
:10171000056A046A100EE76ED8900836093604365A
:1017200005360D50045C0E50055805E30D50045E5F
:0C1730000E50055A082AE72EF0D71200D0
:04173C00FF0EE35069
:10174000186E480E01D04C0EE76EE72EFED7E76A02
:0C175000E72EFED7182EF7D7000012007D
:04175C0013EE00F098
:1017600023EE00F0F86A019CABEC0AF0D3EC0BF02E
:0817700075EC08F0FBD7120034
:08177800C450136E126AC35045
:0A1780001210F36E13C0F4FF120004
:06178A0000EE00F00F0E5E
:08179000EE6AEA62FDD71200C7
:08179800C250020B01E0010E3A
:0217A000120035
:0417A200C2821200ED
:0217A60012002F
:020000040030CA
:0100000024DB
:010001000EF0
:010002003FBE
:010003001EDE
:0100050001F9
:010006008178
:010008000FE8
:01000900C036
:01000A000FE6
:01000B00E014
:01000C000FE4
:01000D0040B2
:00000001FF
